:100000000C9434000C9451000C9451000C94510049
:100010000C9451000C9451000C9451000C9451001C
:100020000C9451000C9451000C9451000C94C90094
:100030000C9451000C9451000C9451000C945100FC
:100040000C9451000C9451000C9473000C945100CA
:100050000C9451000C9451000C9451000C945100DC
:100060000C9451000C94510011241FBECFEFD8E026
:10007000DEBFCDBF11E0A0E0B1E0E6E9F9E002C0EB
:1000800005900D92A232B107D9F721E0A2E2B1E0CA
:1000900001C01D92A033B207E1F70E9461010C94E8
:1000A000C9040C94000081E08093C5008FE980931F
:1000B000C40088E98093C10086E08093C20008955F
:1000C0009091C00095FFFCCF8093C6000895CF9318
:1000D000DF93EC018991882319F00E946000FACF28
:1000E000DF91CF9108951F920F920FB60F921124B6
:1000F0002F933F934F935F936F937F938F939F9330
:10010000AF93BF93EF93FF936091C60080912E0150
:1001100090912F01883E934068F480912E01909138
:100120002F019C012F5F3F4F30932F0120932E0111
:100130000E94800480912C0190912D010196909352
:100140002D0180932C0181E0809323018093220173
:100150008091280190912901A0912A01B0912B0151
:100160008093240190932501A0932601B093270149
:10017000FF91EF91BF91AF919F918F917F916F917F
:100180005F914F913F912F910F900FBE0F901F9055
:1001900018951F920F920FB60F9211240F931F9371
:1001A0002F933F934F935F936F937F938F939F937F
:1001B000AF93BF93EF93FF93CF93DF93CDB7DEB7AA
:1001C000A097DEBFCDBF8091280190912901A09119
:1001D0002A01B0912B0188519C4FAF4FBF4F8093A4
:1001E000280190932901A0932A01B0932B018091BB
:1001F0002301882371F180912C0190912D0110929F
:100200002D0110922C0110922801109229011092B8
:100210002A0110922B0123E0880F991F2A95E1F7FC
:100220001F921F929F938F9380E091E09F938F93F3
:100230008E010F5F1F4F1F930F930E94C501C801CE
:100240000E946700109223010FB6F894DEBF0FBE24
:10025000CDBFA0960FB6F894DEBF0FBECDBFDF9125
:10026000CF91FF91EF91BF91AF919F918F917F912E
:100270006F915F914F913F912F911F910F910F902F
:100280000FBE0F901F9018958DE08093810088E03D
:100290009DE3909389008093880082E080936F00B3
:1002A0000895CF93DF93C0E0D0E06FEFCE010E94BE
:1002B00080042196C83E83E0D807B9F7DF91CF913B
:1002C00008950E9453000E94440178940E945101B5
:1002D00080E191E00E946700809122018823E1F390
:1002E0008091280190912901A0912A01B0912B01C0
:1002F00040912401509125016091260170912701C0
:10030000841B950BA60BB70B893E9340A105B10545
:1003100018F3809123018111DFCF8FEF99E628E157
:10032000815090402040E1F700C0000080912E01F4
:1003300090912F0160E00E948004C0E0D0E0CE01E7
:100340000E947804811119C00E94510110922F015E
:1003500010922E0110922201809128019091290182
:10036000A0912A01B0912B01809324019093250143
:10037000A0932601B0932701AFCF0E946000219681
:10038000C83E83E0D807D9F6DFCFAEE0B0E0EBECB3
:10039000F1E00C94A0040D891E8986E08C831A83F9
:1003A00009838FEF9FE79E838D83AE01475E5F4F8A
:1003B0006F89788DCE0101960E94E701EF81F88563
:1003C000E00FF11F10822E96E4E00C94BC04ABE029
:1003D000B0E0EDEEF1E00C9492046C017B018A0137
:1003E000FC0117821682838181FFCCC1CE01019668
:1003F0003C01F6019381F70193FD859193FF819173
:100400007F01882309F4BAC1853239F493FD8591BF
:1004100093FF81917F01853229F4B60190E00E941B
:10042000DE03E7CF912C212C312CFFE1F315D8F01E
:100430008B3279F038F4803279F08332A1F4232DB5
:1004400020611DC08D3261F0803369F4232D21605D
:1004500016C0832D8260382EE32DE4603E2E2AC024
:10046000F32DF8601DC037FC2DC020ED280F2A3079
:1004700040F08E32B9F436FC81C1232D2064322E37
:1004800019C036FE06C08AE0989E200D1124922ED7
:1004900011C0EAE02E9E200D1124222EF32DF062D1
:1004A0003F2E08C08C3621F4832D8068382E02C080
:1004B000883641F4F70193FD859193FF81917F0187
:1004C0008111B3CF982F9F7D9554933028F40C5F02
:1004D0001F4F9FE399830DC0833631F0833771F04E
:1004E000833509F059C021C0F801808189830E5FEE
:1004F0001F4F88248394912C530113C02801F2E0EC
:100500004F0E511CF801A080B18036FE03C0692D4A
:1005100070E002C06FEF7FEFC5010E94D3034C0172
:100520008201F32DFF773F2E16C0280122E0420EF4
:10053000511CF801A080B18036FE03C0692D70E027
:1005400002C06FEF7FEFC5010E94C8034C01F32D7D
:10055000F0683F2E820133FC1BC0822D90E088168C
:100560009906B0F4B60180E290E00E94DE032A947E
:10057000F4CFF50137FC859137FE81915F01B6011B
:1005800090E00E94DE0321102A9421E0821A910853
:100590008114910471F7E8C0843611F0893641F571
:1005A000F80137FE07C060817181828193810C5F01
:1005B0001F4F08C060817181072E000C880B990BBA
:1005C0000E5F1F4FF32DFF763F2E97FF09C09095CA
:1005D0008095709561957F4F8F4F9F4FF0683F2EAC
:1005E0002AE030E0A3010E941A04882E861845C034
:1005F000853731F4232D2F7EB22E2AE030E025C03E
:10060000932D997FB92E8F36C1F018F4883579F083
:10061000B5C0803719F0883721F0B0C0E92FE0610C
:10062000BE2EB4FE0DC0FB2DF460BF2E09C034FEFB
:100630000AC0292F2660B22E06C028E030E005C08F
:1006400020E130E002C020E132E0F801B7FE07C04F
:1006500060817181828193810C5F1F4F06C0608130
:10066000718180E090E00E5F1F4FA3010E941A0489
:10067000882E8618FB2DFF773F2E36FE0DC0232DCA
:100680002E7FA22E891458F434FE0BC032FC09C010
:10069000832D8E7EA82E05C0B82CA32C03C0B82CA9
:1006A00001C0B92CA4FE0FC0FE01E80DF11D808130
:1006B000803321F49A2D997EA92E09C0A2FE06C08E
:1006C000B394B39404C08A2D867809F0B394A3FC44
:1006D00011C0A0FE06C0B21488F4280C922C9B18FE
:1006E0000EC0B21460F4B60180E290E00E94DE0316
:1006F000B394F7CFB21418F42B1802C0982C212C05
:10070000A4FE10C0B60180E390E00E94DE03A2FECA
:1007100017C0A1FC03C088E790E002C088E590E024
:10072000B6010CC08A2D867859F0A1FE02C08BE27A
:1007300001C080E2A7FC8DE2B60190E00E94DE03DA
:10074000891438F4B60180E390E00E94DE039A94A5
:10075000F7CF8A94F301E80DF11D8081B60190E096
:100760000E94DE038110F5CF222009F442CEB601AB
:1007700080E290E00E94DE032A94F6CFF6018681A3
:10078000978102C08FEF9FEF2B96E2E10C94AE04AD
:10079000FC010590615070400110D8F7809590954C
:1007A0008E0F9F1F0895FC01615070400190011051
:1007B000D8F7809590958E0F9F1F08950F931F93E4
:1007C000CF93DF93FB01238121FD03C08FEF9FEFC8
:1007D0002CC022FF16C046815781248135814217E3
:1007E000530744F4A081B1819D012F5F3F4F3183B6
:1007F00020838C93268137812F5F3F4F3783268359
:1008000014C08B01EC01FB010084F185E02D0995FA
:10081000892BE1F6D80116968D919C911797019638
:1008200017969C938E931697CE01DF91CF911F91CF
:100830000F910895FA01AA27283051F1203181F152
:10084000E8946F936E7F6E5F7F4F8F4F9F4FAF4FD8
:10085000B1E03ED0B4E03CD0670F781F891F9A1FEB
:10086000A11D680F791F8A1F911DA11D6A0F711D9F
:10087000811D911DA11D20D009F468943F912AE0AB
:10088000269F11243019305D3193DEF6CF01089593
:10089000462F4770405D4193B3E00FD0C9F7F6CFC4
:1008A000462F4F70405D4A3318F0495D31FD40528C
:1008B000419302D0A9F7EACFB4E0A6959795879522
:1008C00077956795BA95C9F7009761057105089501
:1008D0009B01AC010A2E06945795479537952795AD
:1008E000BA95C9F7620F731F841F951FA01D089545
:1008F000F999FECF92BD81BDF89A992780B50895E8
:10090000262FF999FECF92BD81BDF89A019700B4C8
:10091000021639F01FBA20BD0FB6F894FA9AF99A68
:100920000FBE08952F923F924F925F926F927F92E7
:100930008F929F92AF92BF92CF92DF92EF92FF92EF
:100940000F931F93CF93DF93CDB7DEB7CA1BDB0B9B
:100950000FB6F894DEBF0FBECDBF09942A88398840
:1009600048885F846E847D848C849B84AA84B98447
:10097000C884DF80EE80FD800C811B81AA81B98153
:10098000CE0FD11D0FB6F894DEBF0FBECDBFED0167
:060990000895F894FFCF6A
:1009960053706565643A20256C75206270730A0091
:1009A600526561647920746F207265636569766546
:0209B6000A0035
:00000001FF
